:1000000026C040C03FC03EC03DC00CC13BC03AC04E
:1000100039C038C037C036C035C034C033C0000026
:100020000000360001020000040000000000000093
:100030000000380000000000370002020202020245
:1000400002020202010204081020200410081124F8
:100050001FBECFE5D2E0DEBFCDBF10E0A0E6B0E02E
:10006000E6EFF6E002C005900D92A236B107D9F78F
:1000700020E0A2E6B0E001C01D92A337B207E1F78D
:100080001BD137C3BDCF90E0FC01EC5BFF4F249147
:10009000865C9F4FFC018491882399F090E0880F43
:1000A000991FFC01EC5CFF4FA591B491FC01E25D4E
:1000B000FF4F859194918FB7F894EC91E22BEC93DC
:1000C0008FBF0895823089F018F4813051F008957F
:1000D000833019F0843009F008958CB58F7D8CBD84
:1000E00008958AB58F778ABD08958AB58F7DFBCF35
:1000F0001F93CF93DF93282F30E0F901EC5DFF4F82
:100100008491F901EC5BFF4FD491F901E65CFF4F5C
:10011000C491CC23A1F0162F8111D4DFEC2FF0E095
:10012000EE0FFF1FE25DFF4FA591B4918FB7F894DA
:10013000EC91111108C0D095DE23DC938FBFDF91C5
:10014000CF911F910895DE2BF8CF863008F08650AE
:10015000877087B9369A3699FECF84B195B10895E4
:100160003FB7F8948091670090916800A091690072
:10017000B0916A0022B708B601FE05C02F3F19F002
:100180000196A11DB11D3FBFBA2FA92F982F882717
:10019000BC01CD01620F711D811D911D43E0660FF1
:1001A000771F881F991F4A95D1F708958F929F92C4
:1001B000AF92BF92CF92DF92EF92FF924B015C0120
:1001C000CFDF6B017C01CCDF6C197D098E099F09A3
:1001D000683E734081059105B0F321E0821A9108D1
:1001E000A108B10888EEC80E83E0D81EE11CF11CFE
:1001F00081149104A104B10431F7FF90EF90DF90D6
:10020000CF90BF90AF909F908F9008952FB7F894A4
:100210006091630070916400809165009091660028
:100220002FBF08951F920F920FB60F9211242F9394
:100230003F938F939F93AF93BF938091630090916F
:100240006400A0916500B09166003091620026E0E4
:10025000230F2D3758F50296A11DB11D2093620082
:100260008093630090936400A0936500B093660050
:100270008091670090916800A0916900B0916A0038
:100280000196A11DB11D8093670090936800A09313
:100290006900B0936A00BF91AF919F918F913F9198
:1002A0002F910F900FBE0F901F90189529E8230FE4
:1002B0000396A11DB11DD2CF78948AB582608ABD04
:1002C0008AB581608ABD83B7826083BF83B781604E
:1002D00083BF89B7826089BF80B7826080BF80B7E3
:1002E000816080BF329A319A3098379A8CB5806499
:1002F0008CBD84E0C8DECAE0D0E082E026DF6AE0A0
:1003000070E080E090E052DF2197B9F77FDF3BD1CA
:1003100060936D0070936E0080936F0090937000F7
:1003200075DF96E2492E90E0592E26E4622E20E0F9
:10033000722E3CE3C32E30E0D32E48E2A42E40E0E0
:10034000B42E50E0E52E50E0F52E01E010E063E021
:10035000862E912C8091710090917200009741F04F
:10036000019709F445C0E114F104A1F349DEF2CF8D
:10037000F2018491F301C491F601D491DD2389F057
:100380008111A0DEED2FF0E0EE0FFF1FE25EFF4FC8
:10039000A591B4918C91C82321F010937200009321
:1003A000710034DFF0D020916D0030916E004091EB
:1003B0006F005091700082D020E030E046E154E4BC
:1003C00070D187FDD0CF22DFDED060936D007093B7
:1003D0006E0080936F009093700083E0B6DE873BE1
:1003E00093400CF4C0CF1093720000937100BBCF08
:1003F000C0916000D091610080916B0090916C0081
:100400008C0F9D1F90936C0080936B008F3F910524
:10041000F4F0FCDE64EF71E080E090E0C7DED1959F
:10042000C195D109D0936100C0936000C0916B0069
:10043000D0916C0084E027DE2097C1F460E084E076
:1004400057DE6EE170E080E090E0B0DE8CCF97FF89
:10045000EDCF909261008092600010927200109235
:10046000710010926C0010926B00E0CFCF3FD1056D
:1004700011F461E0E4CFF50184918230A9F030F409
:10048000813069F0C038D105A4F7D8CF833089F026
:100490008430C1F78CB580628CBDCBBDD2CF8AB51C
:1004A00080688ABDC9BDCDCF8AB580628ABDC8BD0E
:1004B000C8CF8CB580628CBDCEBDC3CF5058BB2792
:1004C000AA270ED0B4C0A5D030F0AAD020F031F4C5
:1004D0009F3F11F41EF49AC00EF4E095E7FB90C024
:1004E000E92FB6D080F3BA17620773078407950720
:1004F00018F071F49EF5CEC00EF4E0950B2EBA2FD5
:10050000A02D0B01B90190010C01CA01A001112419
:10051000FF27591B99F0593F50F4503E68F11A16C5
:10052000F040A22F232F342F4427585FF3CF469556
:1005300037952795A795F0405395C9F77EF41F1678
:10054000BA0B620B730B840BBAF09150A1F0FF0F42
:10055000BB1F661F771F881FC2F70EC0BA0F621F2E
:10056000731F841F48F4879577956795B795F7951E
:100570009E3F08F0B3CF9395880F08F09927EE0FB0
:10058000979587950895E89409C097FB3EF4909558
:100590008095709561957F4F8F4F9F4F9923A9F05C
:1005A000F92F96E9BB279395F695879577956795EB
:1005B000B795F111F8CFFAF4BB0F11F460FF1BC02F
:1005C0006F5F7F4F8F4F9F4F16C0882311F096E9C2
:1005D00011C0772321F09EE8872F762F05C0662370
:1005E00071F096E8862F70E060E02AF09A95660F29
:1005F000771F881FDAF7880F9695879597F90895E2
:1006000097F99F6780E870E060E008959FEF80ECC5
:10061000089500240A941616170618060906089568
:1006200000240A9412161306140605060895092ECE
:100630000394000C11F4882352F0BB0F40F4BF2B3D
:1006400011F460FF04C06F5F7F4F8F4F9F4F08957D
:1006500057FD9058440F551F59F05F3F71F0479573
:10066000880F97FB991F61F09F3F79F08795089558
:10067000121613061406551FF2CF4695F1DF08C077
:10068000161617061806991FF1CF86957105610594
:1006900008940895E894BB2766277727CB0197F93C
:1006A000089503D008F48FEF0895990F0008550FAF
:1006B000AA0BE0E8FEEF16161706E807F907C0F0E8
:1006C00012161306E407F50798F0621B730B840BF0
:1006D000950B39F40A2661F0232B242B252B21F4CA
:1006E00008950A2609F4A140A6958FEF811D811D6A
:0606F0000895F894FFCF0D
:0206F6000300FF
:00000001FF
